:10000000004000203916000065160000651600004B
:1000100065160000651600006516000065160000F4
:1000200065160000651600006516000065160000E4
:1000300065160000651600006516000065160000D4
:10004000651600006516000065160000DD0600005C
:1000500065160000651600006516000065160000B4
:1000600065160000651600006516000065160000A4
:100070006516000065160000651600006516000094
:100080006516000065160000651600006516000084
:100090006516000065160000651600006516000074
:1000A0006516000065160000651600006516000064
:1000B00065160000651600006516000010B5054CB9
:1000C000237833B9044B13B10448AFF30080012304
:1000D000237010BD7400002000000000B018000064
:1000E00008B5064B1BB106480649AFF30080064829
:1000F000036813B1054B03B1984708BD0000000029
:10010000B0180000780000207000002000000000FF
:10011000154B002B08BF134B9D46A3F5803A0021D9
:100120008B460F461348144A121A01F09DFB0F4BE1
:10013000002B00D098470E4B002B00D09847002092
:10014000002104000D000D48002802D00C48AFF338
:10015000008001F063FB2000290000F007FB01F0A4
:1001600049FB00BF00000800004000200000000024
:100170000000000074000020980000200000000033
:100180000000000080B500AF00F00AF800F02EF883
:1001900000F084F800F0CAF800F0FCF880BD00BF61
:1001A00080B500AF0120052100F020FF0A480121A1
:1001B00000F0B8FD0948012100F0B4FD0848012114
:1001C00000F0B0FD0748012100F0ACFD0648012118
:1001D00000F0A8FD80BD00BF4081040000E20400E3
:1001E00000B204000002040000C2040080B586B022
:1001F00000AF00233B7400237B740023BB741F23D8
:10020000FB7400233B7500237B7500233B740023A4
:100210007B740023BB74002000F038FC0346FB74A1
:100220001C48002100F000FC03463B7500237B7551
:1002300007F110031848194600F07AFB00233B71C0
:1002400000237B710023BB710023FB7100233B72F1
:1002500000237B720023BB720023FB7200233B73DD
:1002600000233B7106237B710023BB710023FB71CC
:1002700005233B7200237B720023BB720023FB72B9
:1002800000233B733B1D0448194600F081FB1837DF
:10029000BD4680BDC0CF6A000020004080B584B05C
:1002A00000AF00233B7100237B710123BB7100234E
:1002B000FB7100233B7200237B720023BB7200237F
:1002C000FB7200233B7300237B730023FB7100232D
:1002D0003B7100237B7100237B7300233B7301235D
:1002E000BB7104233B720023BB723B1D4FF04020C7
:1002F000194600F0ABFF00233B7000237B70002306
:10030000BB700023FB7001233B700023BB700023F4
:100310007B700023FB703B464FF0402019460022C3
:1003200000F0FCFF1037BD4680BD00BFB0B586B001
:1003300000AF164B3C1D1D460FCD0FC42B6823602C
:100340004FF4E133FB6005237B7400237B824FF481
:100350008053BB8200233B743B1D0D48194601F0BE
:10036000AFF800233B7000237B700023BB70002399
:100370003B7000237B700023BB703B46044819464A
:1003800001F0D0F81837BD46B0BD00BF941800008A
:1003900000C0004080B400AF1B4B1B4AD2F89C2029
:1003A00042F48062C3F89C20174B174AD2F8982079
:1003B00022F4706242F48062C3F89820124B124A11
:1003C000D2F89C2042F40062C3F89C200E4B0E4AE7
:1003D000D2F8982022F4704242F48052C3F8982058
:1003E000094B094AD2F8982022F4700242F4A00284
:1003F000C3F89820054B054A526D42F003025A6536
:10040000BD465DF8047B70470060004000C00040BE
:1004100080B483B000AF0346FB71084B97F9072007
:100420005209F97901F01F01012000FA01F143F8A6
:1004300022100C37BD465DF8047B704700E100E0F8
:1004400080B483B000AF0346FB71094B97F90720D6
:100450005209F97901F01F01012000FA01F160321F
:1004600043F822100C37BD465DF8047B704700BF8F
:1004700000E100E080B483B000AF03463960FB7157
:10048000FB79002B0DD0FB79012B0AD0FB79022BD5
:1004900007D0FB79032B04D0FB79042B01D0FB7927
:1004A000052B0948FA793B68012101FA03F3194643
:1004B0001346DB0013449B000344103359600C3790
:1004C000BD465DF8047B70470060004080B483B097
:1004D00000AF03463960FB71FB79002B0DD0FB792F
:1004E000012B0AD0FB79022B07D0FB79032B04D018
:1004F000FB79042B01D0FB79052B0948FA793B687D
:10050000012101FA03F319461346DB0013449B0053
:100510000344183319600C37BD465DF8047B7047FF
:100520000060004080B584B000AF514B1B68FB6099
:10053000FB681B0E002B15D14E4BBB60BB681B68C4
:1005400023F07002BB681A604B4BBB60BB681B6832
:1005500023F06042BB681A60BB681B6863F060628E
:10056000BB681A60FB681B0E032B20D8424BBB6094
:10057000BB681B6823F4FC52BB681A603F4BBB602E
:10058000BB6800221A603E4BBB60BB6800221A6049
:100590003C4BBB60BB6800221A603B4BBB60BB6836
:1005A00000221A60394BBB60BB6800221A603B46D0
:1005B000184600F0F3FE7B78012B15D13B78002B19
:1005C00007D12E4BBB60BB681B6843F00202BB68BF
:1005D0001A603B78012B07D8294BBB60BB681B68AE
:1005E00043F00102BB681A60294B1B68FB60FA6884
:1005F000284B9A4239D8224BBB60BB681B6843F436
:100600009042BB681A60244B1B6803F4FE431B0A2C
:100610001B067B60204B1B6803F07F031B047A687A
:1006200013437B601C4B1B6803F4FE437A6813433F
:100630007B60194B1B6803F07F037A6813437B6070
:10064000164BBB60BB687A681A60154BBB60154BD4
:100650001B687B60BB687A681A60094BBB60BB682B
:100660001B6823F49042BB681A601037BD4680BDFA
:10067000FC81E00F0CA00C4020600C4040800C403E
:1006800044800C4058800C4060800C4078800C40C6
:10069000F081E00FFFB98A4CB481E00F34200040B4
:1006A0002C400040C881E00F80B483B000AF786078
:1006B0007B685B6A18460C37BD465DF8047B704763
:1006C00080B483B000AF78600B46FB70FA787B682B
:1006D0005A600C37BD465DF8047B704780B500AFAB
:1006E000054800F07FFF0346052B03D100200821B9
:1006F000FFF7ECFE80BD00BF00C0004080B500AF3A
:10070000FFF710FFFFF73EFD0C4B41F6F9729A64BC
:100710000320FFF795FE0320FFF77AFE074B042224
:10072000DA64064B054A526D42F003025A654FF0F7
:1007300040200021012200F06FFD80BD00C000407C
:1007400080B485B000AFF860B9607A607B68002B38
:1007500003D1FB68BA681A6202E0FB68BA685A62A1
:100760001437BD465DF8047B704700BF80B584B088
:1007700000AF0023FB720023BB72FFF7BFFF002313
:10078000FB6002E0FB680133FB60FA681D4B9A4294
:10079000F8DD4FF485637B604FF0402079680022DC
:1007A000FFF7CEFF00200921FFF764FE0023FB6066
:1007B00002E0FB680133FB60FA68124B9A42F8DDF5
:1007C00011480121FFF77CFF00BF0F4B9B6803F02E
:1007D0000103002BF9D10C48FFF766FF38603B6836
:1007E000FB723B681B0A3B603B68BB72BB7A0748E5
:1007F000194600F00BFFFB7A0448194600F006FF8B
:10080000BDE700BF3F0D03000020004000C00040D6
:1008100080B487B000AF786013460A46FA70BB70A8
:10082000BB78002B04D01023FB603E4B3B6103E000
:100830000023FB603C4B3B617B685A6B3B69134078
:10084000BB6000237B61FB78062B5BD801A252F8CA
:1008500023F000BF710800008F080000B3080000FB
:10086000D10800000509000005090000F508000096
:100870002E4B5B6803F4FE437A6913437B612B4B79
:100880005B6803F07F037A6913437B613DE0274B8C
:100890005B6803F0FE431B0E1B027A6913437B6106
:1008A000224B5B6803F4FE031B0C7A6913437B61E4
:1008B0002BE01E4B9B6803F4FE437A6913437B6174
:1008C0001A4B9B6803F07F037A6913437B611CE03A
:1008D000164B9B6803F0FE431B0E1B027A69134301
:1008E0007B61124B9B6803F4FE031B0C7A69134374
:1008F0007B610AE00D4BDB6803F07F037A691343E9
:100900007B6102E000237B6100BFFB687A699A404B
:10091000BB681A437B685A631C37BD465DF8047B8D
:10092000704700BFFFFF80808080FFFFB081E00F35
:1009300080B485B000AF786039607B680A225A6065
:100940003B681B781A063B68DB781B0403F4F8133A
:100950001A433B681B791B0203F4FE431A433B68AE
:100960005B781B011A433B689B781343FB603B6831
:100970005B79002B03D0FB6843F00803FB607B68C6
:10098000FA681A601437BD465DF8047B704700BFF3
:1009900080B584B000AF786039607B6802225A600D
:1009A0003B689B78786819460022FFF731FF3B6867
:1009B0001B781A073B685B781B051A433B681B7959
:1009C0001B0213431A463B68DB781B011343FB6091
:1009D0003B689B79002B03D0FB6843F08073FB607E
:1009E0003B68DB79002B03D0FB6843F00403FB601A
:1009F0003B685B79002B03D0FB6843F00203FB608C
:100A00003B681B7A002B03D0FB6843F00103FB60BB
:100A10003B689B781B04FA681343FB607B68FA68A9
:100A2000DA601037BD4680BD80B584B000AF786015
:100A300039607A68134B9A4202D9124B7B6006E008
:100A40007B68B3F5FA4F02D24FF4FA437B603B6800
:100A5000002B03D10C4800F0C3F938603A687B687A
:100A600013445A1E7B68B2FBF3F3FB60FB68002B58
:100A700002D0FB68013BFB60FB68DBB21846103715
:100A8000BD4680BD405DC6004081040080B582B097
:100A900000AF78607B68002B08D10E4800F0A0F909
:100AA00078607B68002B01D101237B607B6803F5B4
:100AB000742303F23F237B607A68074BA3FB021386
:100AC0009B0C7B607B68DBB2013BDBB218460837CE
:100AD000BD4680BD4081040083DE1B4380B487B0E7
:100AE00000AFF860B9607A60FB6803F10473DA0064
:100AF000BB6813449B007B617B697A681A601C3772
:100B0000BD465DF8047B704780B485B000AF786067
:100B100039607B6803F10473DA003B6813449B007F
:100B2000FB60FB681B6818461437BD465DF8047B04
:100B3000704700BF80B483B000AF044B7B607B681C
:100B400018460C37BD465DF8047B7047809FD50082
:100B500080B582B000AF0D4800F0D0F90346FB70BD
:100B6000FB78072B05D0082B07D100F0AFFD78608C
:100B700006E0FFF7DFFF786002E000237B6000BF44
:100B80007B6818460837BD4680BD00BF06000C00D4
:100B900080B485B000AF7860214BDB6B002B0CBFBD
:100BA00000230123BB721E4B41F67132DA631C4BEA
:100BB0005B6803F00703FB60FB68012B02D800238E
:100BC000FB7202E00123FB7200BF7A68154B9A4268
:100BD0000BD87A68144B9A4207D9FB7A002B01D0C4
:100BE000032300E00123FB6006E0FB7A002B01D029
:100BF000022300E00023FB60094B094A526822F0FF
:100C00000701FA680A435A60BB7A002B02D0044BF2
:100C10000022DA631437BD465DF8047B704700BFDD
:100C200000000C400048E8010024F40080B500AF4B
:100C300000F042FD03461846FFF7AAFF80BD00BF43
:100C400080B584B000AF78600023BB607B68254A24
:100C5000934203D0244A934200D000E000BF78685A
:100C600000F04CF90346FB607B681E4A934203D0B8
:100C70001D4A934206D00CE01C4B9B6A03F0030311
:100C8000FB6006E0194B9B6A03F00C039B08FB60BA
:100C900000BFFB68032B1CD801A252F823F000BF51
:100CA000CD0C0000B10C0000B90C0000C10C00001C
:100CB00000F08AFDB8600FE000F090FDB8600BE036
:100CC00000F0E0FC03465B08BB6005E00023BB606E
:100CD00002E00023BB6000BFBB6818461037BD466A
:100CE00080BD00BF0200180003001A0000800C4005
:100CF00080B483B000AF7860094B5B6D03F00103F3
:100D0000002B00D006E000BF054B1A6D7B68134036
:100D1000002BF9D10C37BD465DF8047B704700BF4E
:100D200000800C4080B586B000AF78600B46FB7049
:100D300000233B617B681B0A03F00F03013B092B77
:100D40003ED801A252F823F0770D00007D0D00007F
:100D5000710D0000C10D0000C10D0000830D0000E9
:100D60008D0D0000C10D0000C10D0000970D0000A9
:100D7000154B7B6112E0154B7B610FE0144B7B61DF
:100D80000CE0144B7B6101233B6107E0124B7B615C
:100D900010233B6102E0114B7B6100BF7B681B0BA2
:100DA00003F01F03FB603B69002B02D03869FFF79B
:100DB0009FFFFB787869F9681A46FFF78FFE00E01D
:100DC00000BF1837BD4680BD40800C4008800C40F5
:100DD00044800C4058800C4060800C4078800C406F
:100DE00080B584B000AF78607B6803F47813B3F506
:100DF000602F70D0B3F5602F0FD8B3F5003F30D01F
:100E0000B3F5003F02D8002B1BD068E0B3F5802F6C
:100E10001BD0B3F5402F5AD061E0B3F5A01F49D0E5
:100E2000B3F5A01F06D8B3F5801F23D0B3F5901FEC
:100E30002DD054E0B3F5C01F17D0B3F5D01F34D078
:100E40004DE000F043FCF8604CE000F03FFCF8603F
:100E5000274B9B6803F00F03FA6822FA03F3FB6049
:100E600040E000F00FFCF8603CE02248FFF7E8FEAD
:100E7000F86037E01F48FFF7E3FEF8601C4B9B6EFD
:100E800003F00F03FA6822FA03F3FB602AE0194823
:100E9000FFF7D6FEF860164B9B6E03F0F0031B09BC
:100EA000FA6822FA03F3FB601CE01348FFF7C8FE60
:100EB000F86017E01048FFF7C3FEF8600C4B1B6F9B
:100EC00003F00303FA6822FA03F3FB600AE0FFF77A
:100ED0003FFEF86006E0FFF72DFEF86002E0002319
:100EE000FB6000BFFB6818461037BD4680BD00BFE1
:100EF00000800C400200180003001A0080B485B086
:100F000000AF78600123FB737B6803F00F03BB60C5
:100F1000BB68013B052B5DD801A252F823F000BF4E
:100F2000390F00006F0F00009D0F0000D50F00006B
:100F3000D50F0000CB0F00002B4BDB6A03F470537E
:100F4000B3F5805F09D0B3F5005F03D0B3F5006F50
:100F500006D008E00223FB7308E00323FB7305E0DF
:100F60000423FB7302E00523FB7300BF35E01E4B37
:100F70009B6A03F00303022B06D0032B07D0012B3F
:100F800008D10323FB7308E00223FB7305E006236B
:100F9000FB7302E00123FB7300BF1EE0124B9B6A50
:100FA00003F00C03082B06D00C2B07D0042B08D120
:100FB0000323FB7308E00223FB7305E00623FB73A6
:100FC00002E00123FB7300BF07E00723FB73072345
:100FD000FB7302E00023FB7300BFFB7B1846143752
:100FE000BD465DF8047B704700800C4080B588B03A
:100FF00000AF78600B46FB700323FB610323FB7695
:101000007B6803F00F033B613B69012B04D0012B8C
:101010007FD3032B7DD837E0FB78023B032B7AD8B4
:1010200001A252F823F000BF391000004310000065
:101030004D100000571000000423FB610023FB76D5
:101040000EE00323FB610123FB7609E00223FB6131
:101050000223FB7604E00123FB610323FB7600BF40
:10106000FB7E18460121012200F060F8FFF7DEFD4B
:101070002C4BFA695A6200F083F900F003FBF86028
:10108000F868FFF785FD49E0FB78013B052B44D864
:1010900001A252F823F000BFB1100000B710000009
:1010A000C71000001B1100001B110000D71000002A
:1010B00000237B6117E000200121012200F036F8B7
:1010C00002237B610FE001200121012200F02EF8B4
:1010D00001237B6107E0144802210122FFF7FEFC97
:1010E00003237B6100BF3B69022B08D10D4B0D4AE6
:1010F000926A22F003017A690A439A620EE0094B70
:10110000084A926A22F00C017A6992000A439A62B4
:1011100004E000BF02E000BF00E000BF2037BD4692
:1011200080BD00BF00800C4040800C4080B586B080
:1011300000AF13460246FA710A46BA717B71FB7919
:10114000042B4AD801A252F823F000BF99110000E5
:101150008B1100006F110000611100007D11000073
:1011600001233B610223FB6001237B611DE004231B
:101170003B610823FB6003237B6116E010233B6186
:101180002023FB6005237B610FE040233B6180232C
:10119000FB6007237B6108E04FF480733B614FF4F1
:1011A0000073FB6009237B6100BFBB79002B0ED06D
:1011B0000C4B3A691A627B79002B0BD000BF0A48AE
:1011C0007969FFF7A1FC0346002BF8D002E0054B3C
:1011D000FA681A6200F0D4F800E000BF1837BD4684
:1011E00080BD00BF00800C402C800C4080B487B0D4
:1011F00000AFF860B9607A60FB6803F10473DA004D
:10120000BB6813449B007B617B697A681A601C375A
:10121000BD465DF8047B704780B586B000AFF860CE
:10122000B9601346FB71BB68002B03D1FB68083320
:101230007B6102E0FB680C337B61FB7978690021FC
:101240001A46FFF7D3FF1837BD4680BD80B584B07E
:1012500000AF786039607B680833184600210022AF
:10126000FFF7C4FF7B680C33184600210022FFF70C
:10127000BDFF3B685B78012B02D0022B05D009E053
:10128000254BDA697B68DA6209E0234B1A6A7B68CE
:10129000DA6204E0204B9A697B68DA6200BF3B683F
:1012A0001B781A053B681B791B0403F4E0231A43DF
:1012B0003B685B781B021A433B689B781B011A430F
:1012C0003B68DB789B001343FB603B689B79002BFA
:1012D00003D0FB6843F08003FB603B68DB79002BA5
:1012E00003D0FB6843F04003FB603B681B7A002B94
:1012F00003D0FB6843F00203FB603B685B7A002B82
:1013000003D0FB6843F00103FB607B68FA681A6056
:101310001037BD4680BD00BFB081E00F80B487B0FC
:1013200000AFF860B9607A60BB68DB781B017B6155
:10133000BB681B78002B03D07B6943F001037B6102
:10134000BB685B78002B03D07B6943F004037B61AF
:10135000BB689B78002B03D07B6943F002037B6161
:101360007B68002B03D0FB687A69DA6002E0FB68D7
:101370007A699A601C37BD465DF8047B704700BFF0
:1013800080B400AF034BDA6A034B1A60BD465DF8C8
:10139000047B704700800C409000002080B485B032
:1013A00000AF7860194B5B69DBB203F00F03DBB26F
:1013B0009B00FB73154B1B6903F0C0039B09DAB25A
:1013C000FB7B1343FB737B68FA7B9A700F4B1B69A3
:1013D000DBB203F03F03DAB27B685A700B4B9B69B8
:1013E000DBB223F00F03FB73084BDB6903F0F00360
:1013F0001B09DAB2FB7B1343FB737B68FA7B1A7021
:101400001437BD465DF8047B704700BFD0FF0FE086
:1014100080B586B000AFF860B9607A60FB70BB68D9
:10142000002B03D12448FFF7DBFCB860FB78202BAE
:101430000CD0202B02DC002B05D03AE0402B08D04A
:10144000602B09D035E010237B6108E008237B6125
:1014500005E006237B6102E004237B6100BFBB68DB
:101460009A007B69796801FB03F35B0813443B61D5
:101470007B697A6802FB03F33A69B2FBF3F33B61E1
:101480003B69043B3B613B699B013B613A690B4B08
:1014900013403B61FB681B6823F06002FB681A6025
:1014A000FB681A68FB781A43FB681A60FB683A69A4
:1014B0005A611837BD4680BD40810400C0FF1F003F
:1014C00080B582B000AF786039607A68134B9A4279
:1014D00003D07A68124B9A4200D100BF786800F0BE
:1014E00049F83B685B7B1A463B681B8A1A433B689A
:1014F000DB891A437B685A603B6859683B689A6885
:101500003B681B7B7868FFF783FF3B681B781A46B4
:101510007B68DA600837BD4680BD00BF00C0004070
:1015200000C4004080B485B000AF786039607B684B
:101530009B6823F03703FB603B685B78002B03D08C
:10154000FB6843F02003FB603B681B78002B03D053
:10155000FB6843F01003FB603B689B78FA68134319
:10156000FB607B68FA689A601437BD465DF8047BBF
:10157000704700BF80B483B000AF78607A68174BC3
:101580009A4203D07A68164B9A4200D100BF7B681A
:1015900040F6AA62DA607B6800221A607B6841F23A
:1015A00005025A607B6800229A607B6800225A61BB
:1015B0007B680022DA647B6841F6F9729A647B6882
:1015C00000225A657A68054B9A4202D17B68002254
:1015D0001A650C37BD465DF8047B704700C00040BB
:1015E00000C4004080B483B000AF786000BF7B6867
:1015F0001B6903F08003002BF9D07B68DB69DBB249
:1016000018460C37BD465DF8047B704780B483B044
:1016100000AF78600B46FB7000BF7B681B6903F06E
:101620004003002BF9D0FA787B685A630C37BD462B
:101630005DF8047B704700BF064880470649074AAB
:10164000074B9A42BEBF51F8040B42F8040BF8E76F
:10165000FEF75EFDBD170000BC1800000000002072
:1016600074000020FEE700BF80B400AF044BDB6CC9
:101670001B0EDBB21846BD465DF8047B704700BF09
:10168000B081E00F80B582B000AF00F01FF8786045
:10169000074B5B6803F00F037A6822FA03F37B6061
:1016A000044B7A681A607B6818460837BD4680BDCF
:1016B00000800C409400002080B400AF024B18461C
:1016C000BD465DF8047B70470048E80180B582B0F4
:1016D00000AF2F4BDB6A03F47053B3F5805F0AD081
:1016E000B3F5005F03D0B3F5006F08D00BE0294BD2
:1016F0001B687B6047E04FF400437B6043E0264B70
:101700001B687B603FE0224BDB6803F4E063B3F5CA
:10171000007F1BD0B3F5007F05D8002B24D0B3F594
:10172000807F16D02BE0B3F5806F09D0B3F5A06FA2
:1017300003D0B3F5407F06D021E0184B7B6021E059
:10174000174B7B601EE0174B7B601BE0164B7B60EA
:1017500018E0FFF789FF0346122B02D9134B7B6079
:1017600010E0134B7B600DE0FFF77EFF0346122B6A
:1017700002D9104B7B6005E00F4B7B6002E0002339
:101780007B6000BF00BF7B6818460837BD4680BD40
:1017900000800C400400002000000020003FAB014E
:1017A000406F4001809FD500C0D8A70040B56400BD
:1017B000C0CF6A00804F120040420F0080B400AFDB
:1017C000BD465DF8047B704780B400AF4FF4004322
:1017D0001846BD465DF8047B704700BF80B400AF7B
:1017E000034B1B681846BD465DF8047B704700BF7D
:1017F0000400002008B5074B044613B10021AFF3E5
:101800000080054B1868836A03B19847204600F0B2
:1018100033F800BF00000000AC18000070B50E4B9C
:101820000E4D0024ED1AAD101E46AC4204D056F801
:10183000242090470134F8E700F020F8084D094BC8
:101840000024ED1AAD101E46AC4204D056F82420F8
:1018500090470134F8E770BD680000206800002060
:101860006C0000206800002002440346934202D02E
:1018700003F8011BFAE77047FEE700BFF8B500BFA9
:10188000F8BC08BC9E467047F8B500BFF8BC08BC61
:101890009E467047050000000000000000C20100E5
:1018A00000050000001000004300000008000020B8
:0418B0000000000034
:0818B4005CE8FF7F0100000069
:1018BC000048E8010080000000000000000000006B
:1018CC00000000000000000000000000000000000C
:1018DC000000000000000000A8180000000000003C
:1018EC0000000000000000000000000000000000EC
:1018FC0000000000000000000000000000000000DC
:10190C0000000000000000000000000000000000CB
:10191C000000000000000000E1000000BD0000001D
:04192C0000000000B7
:0400000300001639AA
:00000001FF
